{
  "_format": "hh-sol-artifact-1",
  "contractName": "FileAccessControl",
  "sourceName": "contracts/FileAccessControl.sol",
  "abi": [
    {
      "inputs": [],
      "stateMutability": "nonpayable",
      "type": "constructor"
    },
    {
      "anonymous": false,
      "inputs": [
        {
          "indexed": true,
          "internalType": "uint256",
          "name": "logId",
          "type": "uint256"
        },
        {
          "indexed": true,
          "internalType": "string",
          "name": "fileId",
          "type": "string"
        },
        {
          "indexed": true,
          "internalType": "address",
          "name": "user",
          "type": "address"
        },
        {
          "indexed": false,
          "internalType": "enum FileAccessControl.AccessAction",
          "name": "action",
          "type": "uint8"
        },
        {
          "indexed": false,
          "internalType": "uint256",
          "name": "timestamp",
          "type": "uint256"
        }
      ],
      "name": "AccessLogged",
      "type": "event"
    },
    {
      "anonymous": false,
      "inputs": [
        {
          "indexed": true,
          "internalType": "string",
          "name": "fileId",
          "type": "string"
        },
        {
          "indexed": true,
          "internalType": "address",
          "name": "owner",
          "type": "address"
        }
      ],
      "name": "FileDeleted",
      "type": "event"
    },
    {
      "anonymous": false,
      "inputs": [
        {
          "indexed": true,
          "internalType": "string",
          "name": "fileId",
          "type": "string"
        },
        {
          "indexed": false,
          "internalType": "string",
          "name": "ipfsHash",
          "type": "string"
        },
        {
          "indexed": true,
          "internalType": "address",
          "name": "owner",
          "type": "address"
        },
        {
          "indexed": false,
          "internalType": "string",
          "name": "fileName",
          "type": "string"
        },
        {
          "indexed": false,
          "internalType": "uint256",
          "name": "fileSize",
          "type": "uint256"
        }
      ],
      "name": "FileUploaded",
      "type": "event"
    },
    {
      "anonymous": false,
      "inputs": [
        {
          "indexed": true,
          "internalType": "address",
          "name": "previousOwner",
          "type": "address"
        },
        {
          "indexed": true,
          "internalType": "address",
          "name": "newOwner",
          "type": "address"
        }
      ],
      "name": "OwnershipTransferred",
      "type": "event"
    },
    {
      "anonymous": false,
      "inputs": [
        {
          "indexed": true,
          "internalType": "string",
          "name": "fileId",
          "type": "string"
        },
        {
          "indexed": true,
          "internalType": "address",
          "name": "user",
          "type": "address"
        },
        {
          "indexed": false,
          "internalType": "enum FileAccessControl.PermissionType",
          "name": "permissionType",
          "type": "uint8"
        },
        {
          "indexed": true,
          "internalType": "address",
          "name": "grantedBy",
          "type": "address"
        }
      ],
      "name": "PermissionGranted",
      "type": "event"
    },
    {
      "anonymous": false,
      "inputs": [
        {
          "indexed": true,
          "internalType": "string",
          "name": "fileId",
          "type": "string"
        },
        {
          "indexed": true,
          "internalType": "address",
          "name": "user",
          "type": "address"
        },
        {
          "indexed": true,
          "internalType": "address",
          "name": "revokedBy",
          "type": "address"
        }
      ],
      "name": "PermissionRevoked",
      "type": "event"
    },
    {
      "anonymous": false,
      "inputs": [
        {
          "indexed": true,
          "internalType": "address",
          "name": "userAddress",
          "type": "address"
        },
        {
          "indexed": false,
          "internalType": "enum FileAccessControl.UserRole",
          "name": "role",
          "type": "uint8"
        },
        {
          "indexed": false,
          "internalType": "string",
          "name": "email",
          "type": "string"
        },
        {
          "indexed": false,
          "internalType": "string",
          "name": "name",
          "type": "string"
        }
      ],
      "name": "UserRegistered",
      "type": "event"
    },
    {
      "inputs": [
        {
          "internalType": "uint256",
          "name": "",
          "type": "uint256"
        }
      ],
      "name": "accessLogs",
      "outputs": [
        {
          "internalType": "uint256",
          "name": "id",
          "type": "uint256"
        },
        {
          "internalType": "string",
          "name": "fileId",
          "type": "string"
        },
        {
          "internalType": "address",
          "name": "user",
          "type": "address"
        },
        {
          "internalType": "enum FileAccessControl.AccessAction",
          "name": "action",
          "type": "uint8"
        },
        {
          "internalType": "uint256",
          "name": "timestamp",
          "type": "uint256"
        },
        {
          "internalType": "string",
          "name": "ipAddress",
          "type": "string"
        },
        {
          "internalType": "string",
          "name": "userAgent",
          "type": "string"
        }
      ],
      "stateMutability": "view",
      "type": "function"
    },
    {
      "inputs": [
        {
          "internalType": "uint256",
          "name": "",
          "type": "uint256"
        }
      ],
      "name": "allFileIds",
      "outputs": [
        {
          "internalType": "string",
          "name": "",
          "type": "string"
        }
      ],
      "stateMutability": "view",
      "type": "function"
    },
    {
      "inputs": [
        {
          "internalType": "string",
          "name": "fileId",
          "type": "string"
        }
      ],
      "name": "deleteFile",
      "outputs": [],
      "stateMutability": "nonpayable",
      "type": "function"
    },
    {
      "inputs": [
        {
          "internalType": "string",
          "name": "",
          "type": "string"
        }
      ],
      "name": "fileExists",
      "outputs": [
        {
          "internalType": "bool",
          "name": "",
          "type": "bool"
        }
      ],
      "stateMutability": "view",
      "type": "function"
    },
    {
      "inputs": [
        {
          "internalType": "string",
          "name": "",
          "type": "string"
        },
        {
          "internalType": "address",
          "name": "",
          "type": "address"
        }
      ],
      "name": "filePermissions",
      "outputs": [
        {
          "internalType": "address",
          "name": "user",
          "type": "address"
        },
        {
          "internalType": "enum FileAccessControl.PermissionType",
          "name": "permissionType",
          "type": "uint8"
        },
        {
          "internalType": "address",
          "name": "grantedBy",
          "type": "address"
        },
        {
          "internalType": "uint256",
          "name": "grantedAt",
          "type": "uint256"
        },
        {
          "internalType": "bool",
          "name": "isActive",
          "type": "bool"
        }
      ],
      "stateMutability": "view",
      "type": "function"
    },
    {
      "inputs": [
        {
          "internalType": "string",
          "name": "",
          "type": "string"
        },
        {
          "internalType": "uint256",
          "name": "",
          "type": "uint256"
        }
      ],
      "name": "fileUserList",
      "outputs": [
        {
          "internalType": "address",
          "name": "",
          "type": "address"
        }
      ],
      "stateMutability": "view",
      "type": "function"
    },
    {
      "inputs": [
        {
          "internalType": "string",
          "name": "",
          "type": "string"
        }
      ],
      "name": "files",
      "outputs": [
        {
          "internalType": "string",
          "name": "ipfsHash",
          "type": "string"
        },
        {
          "internalType": "string",
          "name": "fileName",
          "type": "string"
        },
        {
          "internalType": "uint256",
          "name": "fileSize",
          "type": "uint256"
        },
        {
          "internalType": "address",
          "name": "owner",
          "type": "address"
        },
        {
          "internalType": "uint256",
          "name": "createdAt",
          "type": "uint256"
        },
        {
          "internalType": "bool",
          "name": "exists",
          "type": "bool"
        }
      ],
      "stateMutability": "view",
      "type": "function"
    },
    {
      "inputs": [
        {
          "internalType": "address",
          "name": "user",
          "type": "address"
        }
      ],
      "name": "getAccessibleFiles",
      "outputs": [
        {
          "internalType": "string[]",
          "name": "",
          "type": "string[]"
        }
      ],
      "stateMutability": "view",
      "type": "function"
    },
    {
      "inputs": [],
      "name": "getAllUsers",
      "outputs": [
        {
          "internalType": "address[]",
          "name": "",
          "type": "address[]"
        }
      ],
      "stateMutability": "view",
      "type": "function"
    },
    {
      "inputs": [
        {
          "internalType": "string",
          "name": "fileId",
          "type": "string"
        }
      ],
      "name": "getFileAccessLogs",
      "outputs": [
        {
          "components": [
            {
              "internalType": "uint256",
              "name": "id",
              "type": "uint256"
            },
            {
              "internalType": "string",
              "name": "fileId",
              "type": "string"
            },
            {
              "internalType": "address",
              "name": "user",
              "type": "address"
            },
            {
              "internalType": "enum FileAccessControl.AccessAction",
              "name": "action",
              "type": "uint8"
            },
            {
              "internalType": "uint256",
              "name": "timestamp",
              "type": "uint256"
            },
            {
              "internalType": "string",
              "name": "ipAddress",
              "type": "string"
            },
            {
              "internalType": "string",
              "name": "userAgent",
              "type": "string"
            }
          ],
          "internalType": "struct FileAccessControl.AccessLog[]",
          "name": "",
          "type": "tuple[]"
        }
      ],
      "stateMutability": "view",
      "type": "function"
    },
    {
      "inputs": [
        {
          "internalType": "string",
          "name": "fileId",
          "type": "string"
        }
      ],
      "name": "getFileMetadata",
      "outputs": [
        {
          "internalType": "string",
          "name": "ipfsHash",
          "type": "string"
        },
        {
          "internalType": "string",
          "name": "fileName",
          "type": "string"
        },
        {
          "internalType": "uint256",
          "name": "fileSize",
          "type": "uint256"
        },
        {
          "internalType": "address",
          "name": "owner",
          "type": "address"
        },
        {
          "internalType": "uint256",
          "name": "createdAt",
          "type": "uint256"
        }
      ],
      "stateMutability": "view",
      "type": "function"
    },
    {
      "inputs": [],
      "name": "getTotalAccessLogs",
      "outputs": [
        {
          "internalType": "uint256",
          "name": "",
          "type": "uint256"
        }
      ],
      "stateMutability": "view",
      "type": "function"
    },
    {
      "inputs": [
        {
          "internalType": "address",
          "name": "user",
          "type": "address"
        }
      ],
      "name": "getUserFiles",
      "outputs": [
        {
          "internalType": "string[]",
          "name": "",
          "type": "string[]"
        }
      ],
      "stateMutability": "view",
      "type": "function"
    },
    {
      "inputs": [
        {
          "internalType": "address",
          "name": "userAddress",
          "type": "address"
        }
      ],
      "name": "getUserInfo",
      "outputs": [
        {
          "internalType": "enum FileAccessControl.UserRole",
          "name": "role",
          "type": "uint8"
        },
        {
          "internalType": "string",
          "name": "email",
          "type": "string"
        },
        {
          "internalType": "string",
          "name": "name",
          "type": "string"
        },
        {
          "internalType": "bool",
          "name": "isRegistered",
          "type": "bool"
        }
      ],
      "stateMutability": "view",
      "type": "function"
    },
    {
      "inputs": [
        {
          "internalType": "string",
          "name": "fileId",
          "type": "string"
        },
        {
          "internalType": "address",
          "name": "user",
          "type": "address"
        },
        {
          "internalType": "enum FileAccessControl.PermissionType",
          "name": "permissionType",
          "type": "uint8"
        }
      ],
      "name": "grantPermission",
      "outputs": [],
      "stateMutability": "nonpayable",
      "type": "function"
    },
    {
      "inputs": [
        {
          "internalType": "string",
          "name": "fileId",
          "type": "string"
        },
        {
          "internalType": "address",
          "name": "user",
          "type": "address"
        },
        {
          "internalType": "enum FileAccessControl.PermissionType",
          "name": "requiredPermission",
          "type": "uint8"
        }
      ],
      "name": "hasFilePermission",
      "outputs": [
        {
          "internalType": "bool",
          "name": "",
          "type": "bool"
        }
      ],
      "stateMutability": "view",
      "type": "function"
    },
    {
      "inputs": [
        {
          "internalType": "string",
          "name": "fileId",
          "type": "string"
        },
        {
          "internalType": "enum FileAccessControl.AccessAction",
          "name": "action",
          "type": "uint8"
        },
        {
          "internalType": "string",
          "name": "ipAddress",
          "type": "string"
        },
        {
          "internalType": "string",
          "name": "userAgent",
          "type": "string"
        }
      ],
      "name": "logFileAccess",
      "outputs": [],
      "stateMutability": "nonpayable",
      "type": "function"
    },
    {
      "inputs": [],
      "name": "owner",
      "outputs": [
        {
          "internalType": "address",
          "name": "",
          "type": "address"
        }
      ],
      "stateMutability": "view",
      "type": "function"
    },
    {
      "inputs": [
        {
          "internalType": "address",
          "name": "userAddress",
          "type": "address"
        },
        {
          "internalType": "enum FileAccessControl.UserRole",
          "name": "role",
          "type": "uint8"
        },
        {
          "internalType": "string",
          "name": "email",
          "type": "string"
        },
        {
          "internalType": "string",
          "name": "name",
          "type": "string"
        }
      ],
      "name": "registerUser",
      "outputs": [],
      "stateMutability": "nonpayable",
      "type": "function"
    },
    {
      "inputs": [
        {
          "internalType": "uint256",
          "name": "",
          "type": "uint256"
        }
      ],
      "name": "registeredUsers",
      "outputs": [
        {
          "internalType": "address",
          "name": "",
          "type": "address"
        }
      ],
      "stateMutability": "view",
      "type": "function"
    },
    {
      "inputs": [],
      "name": "renounceOwnership",
      "outputs": [],
      "stateMutability": "nonpayable",
      "type": "function"
    },
    {
      "inputs": [
        {
          "internalType": "string",
          "name": "fileId",
          "type": "string"
        },
        {
          "internalType": "address",
          "name": "user",
          "type": "address"
        }
      ],
      "name": "revokePermission",
      "outputs": [],
      "stateMutability": "nonpayable",
      "type": "function"
    },
    {
      "inputs": [
        {
          "internalType": "address",
          "name": "newOwner",
          "type": "address"
        }
      ],
      "name": "transferOwnership",
      "outputs": [],
      "stateMutability": "nonpayable",
      "type": "function"
    },
    {
      "inputs": [
        {
          "internalType": "address",
          "name": "userAddress",
          "type": "address"
        },
        {
          "internalType": "enum FileAccessControl.UserRole",
          "name": "newRole",
          "type": "uint8"
        }
      ],
      "name": "updateUserRole",
      "outputs": [],
      "stateMutability": "nonpayable",
      "type": "function"
    },
    {
      "inputs": [
        {
          "internalType": "string",
          "name": "fileId",
          "type": "string"
        },
        {
          "internalType": "string",
          "name": "ipfsHash",
          "type": "string"
        },
        {
          "internalType": "string",
          "name": "fileName",
          "type": "string"
        },
        {
          "internalType": "uint256",
          "name": "fileSize",
          "type": "uint256"
        }
      ],
      "name": "uploadFile",
      "outputs": [],
      "stateMutability": "nonpayable",
      "type": "function"
    },
    {
      "inputs": [
        {
          "internalType": "address",
          "name": "",
          "type": "address"
        }
      ],
      "name": "users",
      "outputs": [
        {
          "internalType": "address",
          "name": "userAddress",
          "type": "address"
        },
        {
          "internalType": "enum FileAccessControl.UserRole",
          "name": "role",
          "type": "uint8"
        },
        {
          "internalType": "string",
          "name": "email",
          "type": "string"
        },
        {
          "internalType": "string",
          "name": "name",
          "type": "string"
        },
        {
          "internalType": "bool",
          "name": "isRegistered",
          "type": "bool"
        }
      ],
      "stateMutability": "view",
      "type": "function"
    }
  ],
  "bytecode": "0x60806040523480156200001157600080fd5b506200001d3362000027565b6001805562000077565b600080546001600160a01b038381166001600160a01b0319831681178455604051919092169283917f8be0079c531659141344cd1fd0a4f28419497f9722a3daafe3b4186f6b6457e09190a35050565b613b0580620000876000396000f3fe608060405234801561001057600080fd5b506004361061018e5760003560e01c8063997e8aaa116100de578063d7b6ec7711610097578063e775576111610071578063e775576114610453578063efcfe1a214610478578063f2fde38b1461048b578063f6712c951461049e57600080fd5b8063d7b6ec77146103ac578063d9aa273c1461042b578063e2842d791461043e57600080fd5b8063997e8aaa146102fe5780639bccd6ad14610311578063a87430ba1461034f578063a991005414610373578063b36b64a914610386578063c291fe621461039957600080fd5b806357308e6e1161014b5780636ccc20f0116101255780636ccc20f0146102a7578063715018a6146102ba5780637259e0f8146102c25780638da5cb5b146102ed57600080fd5b806357308e6e1461023e57806359741ba01461025e5780636386c1c71461028457600080fd5b80631f985003146101935780631fc37922146101c05780632c35d432146101e057806342e8ce2a146101f357806355d5e3621461020857806355f025da1461021e575b600080fd5b6101a66101a136600461305f565b6104b1565b6040516101b79594939291906130eb565b60405180910390f35b6101d36101ce366004613153565b6106bb565b6040516101b7919061316e565b6101d36101ee366004613153565b610951565b6102066102013660046131d0565b610bed565b005b610210610ea6565b6040519081526020016101b7565b61023161022c36600461305f565b610eb6565b6040516101b79190613247565b61025161024c366004613327565b611277565b6040516101b79190613340565b61027161026c366004613327565b611323565b6040516101b79796959493929190613353565b610297610292366004613153565b611508565b6040516101b794939291906133d2565b6102066102b536600461341a565b6116cd565b610206611a21565b6102d56102d0366004613327565b611a35565b6040516001600160a01b0390911681526020016101b7565b6000546001600160a01b03166102d5565b61020661030c3660046134b6565b611a5f565b61033f61031f36600461305f565b805160208183018101805160088252928201919093012091525460ff1681565b60405190151581526020016101b7565b61036261035d366004613153565b611edc565b6040516101b7959493929190613517565b61020661038136600461305f565b61202e565b6102d561039436600461356f565b6123d5565b6102066103a73660046135b3565b61241c565b61041a6103ba3660046131d0565b8151808301602090810180516004825292820194820194909420919093529091526000908152604090208054600182015460028301546003909301546001600160a01b038084169460ff600160a01b909504851694939091169290911685565b6040516101b79594939291906135ea565b61033f6104393660046134b6565b6124a3565b6104466125dc565b6040516101b7919061362c565b61046661046136600461305f565b6126dc565b6040516101b796959493929190613679565b6102066104863660046136cf565b612839565b610206610499366004613153565b612a29565b6102066104ac366004613755565b612aa2565b6060806000806000856008816040516104ca91906137ba565b9081526040519081900360200190205460ff166105025760405162461bcd60e51b81526004016104f9906137d6565b60405180910390fd5b600060038860405161051491906137ba565b90815260200160405180910390206040518060c001604052908160008201805461053d90613803565b80601f016020809104026020016040519081016040528092919081815260200182805461056990613803565b80156105b65780601f1061058b576101008083540402835291602001916105b6565b820191906000526020600020905b81548152906001019060200180831161059957829003601f168201915b505050505081526020016001820180546105cf90613803565b80601f01602080910402602001604051908101604052809291908181526020018280546105fb90613803565b80156106485780601f1061061d57610100808354040283529160200191610648565b820191906000526020600020905b81548152906001019060200180831161062b57829003601f168201915b5050509183525050600282015460208083019190915260038301546001600160a01b0316604080840191909152600484015460608085019190915260059094015460ff16151560809384015284519185015190850151938501519490920151909c919b5091995091975095509350505050565b600a546060906000906001600160401b038111156106db576106db612fbd565b60405190808252806020026020018201604052801561070e57816020015b60608152602001906001900390816106f95790505b5090506000805b600a548110156108a257846001600160a01b03166003600a838154811061073e5761073e613837565b9060005260206000200160405161075591906138c0565b908152604051908190036020019020600301546001600160a01b03161480156107b957506008600a828154811061078e5761078e613837565b906000526020600020016040516107a591906138c0565b9081526040519081900360200190205460ff165b1561089057600a81815481106107d1576107d1613837565b9060005260206000200180546107e690613803565b80601f016020809104026020016040519081016040528092919081815260200182805461081290613803565b801561085f5780601f106108345761010080835404028352916020019161085f565b820191906000526020600020905b81548152906001019060200180831161084257829003601f168201915b505050505083838151811061087657610876613837565b6020026020010181905250818061088c906138cc565b9250505b8061089a816138cc565b915050610715565b506000816001600160401b038111156108bd576108bd612fbd565b6040519080825280602002602001820160405280156108f057816020015b60608152602001906001900390816108db5790505b50905060005b828110156109485783818151811061091057610910613837565b602002602001015182828151811061092a5761092a613837565b60200260200101819052508080610940906138cc565b9150506108f6565b50949350505050565b600a546060906000906001600160401b0381111561097157610971612fbd565b6040519080825280602002602001820160405280156109a457816020015b606081526020019060019003908161098f5790505b5090506000805b600a54811015610b47576000600a82815481106109ca576109ca613837565b9060005260206000200180546109df90613803565b80601f0160208091040260200160405190810160405280929190818152602001828054610a0b90613803565b8015610a585780601f10610a2d57610100808354040283529160200191610a58565b820191906000526020600020905b815481529060010190602001808311610a3b57829003601f168201915b50505050509050600881604051610a6f91906137ba565b9081526040519081900360200190205460ff168015610b025750856001600160a01b0316600382604051610aa391906137ba565b908152604051908190036020019020600301546001600160a01b03161480610b025750600481604051610ad691906137ba565b90815260408051602092819003830190206001600160a01b0389166000908152925290206003015460ff165b15610b345780848481518110610b1a57610b1a613837565b60200260200101819052508280610b30906138cc565b9350505b5080610b3f816138cc565b9150506109ab565b506000816001600160401b03811115610b6257610b62612fbd565b604051908082528060200260200182016040528015610b9557816020015b6060815260200190600190039081610b805790505b50905060005b8281101561094857838181518110610bb557610bb5613837565b6020026020010151828281518110610bcf57610bcf613837565b60200260200101819052508080610be5906138cc565b915050610b9b565b81600881604051610bfe91906137ba565b9081526040519081900360200190205460ff16610c2d5760405162461bcd60e51b81526004016104f9906137d6565b3360009081526006602052604090206003015460ff16610c5f5760405162461bcd60e51b81526004016104f9906138f3565b610c67612c77565b336001600160a01b0316600384604051610c8191906137ba565b908152604051908190036020019020600301546001600160a01b03161480610cd35750600233600090815260066020526040902054600160a01b900460ff166002811115610cd157610cd161321d565b145b610d455760405162461bcd60e51b815260206004820152603760248201527f4f6e6c792066696c65206f776e6572206f722061646d696e6973747261746f7260448201527f2063616e207265766f6b65207065726d697373696f6e7300000000000000000060648201526084016104f9565b600483604051610d5591906137ba565b90815260408051602092819003830190206001600160a01b0385166000908152925290206003015460ff16610dd85760405162461bcd60e51b8152602060048201526024808201527f5573657220646f6573206e6f74206861766520616374697665207065726d697360448201526339b4b7b760e11b60648201526084016104f9565b6000600484604051610dea91906137ba565b90815260408051602092819003830181206001600160a01b0387166000908152908452828120600301805460ff19169515159590951790945582810182528381528151928301909152918152610e469185913391600491612cd0565b336001600160a01b0316826001600160a01b031684604051610e6891906137ba565b604051908190038120907fa92fbbb4a9f585cd528f113d1dc03eb41867de9035204a3fb73ede3499c2191e90600090a4610ea160018055565b505050565b6000610eb160025490565b905090565b606081600881604051610ec991906137ba565b9081526040519081900360200190205460ff16610ef85760405162461bcd60e51b81526004016104f9906137d6565b600060015b6002548111610f5e57848051906020012060076000838152602001908152602001600020600101604051610f3191906138c0565b604051809103902003610f4c5781610f48816138cc565b9250505b80610f56816138cc565b915050610efd565b506000816001600160401b03811115610f7957610f79612fbd565b604051908082528060200260200182016040528015610fb257816020015b610f9f612ef9565b815260200190600190039081610f975790505b509050600060015b600254811161126a57868051906020012060076000838152602001908152602001600020600101604051610fee91906138c0565b60405180910390200361125857600760008281526020019081526020016000206040518060e00160405290816000820154815260200160018201805461103390613803565b80601f016020809104026020016040519081016040528092919081815260200182805461105f90613803565b80156110ac5780601f10611081576101008083540402835291602001916110ac565b820191906000526020600020905b81548152906001019060200180831161108f57829003601f168201915b505050918352505060028201546001600160a01b0381166020830152604090910190600160a01b900460ff1660058111156110e9576110e961321d565b60058111156110fa576110fa61321d565b81526020016003820154815260200160048201805461111890613803565b80601f016020809104026020016040519081016040528092919081815260200182805461114490613803565b80156111915780601f1061116657610100808354040283529160200191611191565b820191906000526020600020905b81548152906001019060200180831161117457829003601f168201915b505050505081526020016005820180546111aa90613803565b80601f01602080910402602001604051908101604052809291908181526020018280546111d690613803565b80156112235780601f106111f857610100808354040283529160200191611223565b820191906000526020600020905b81548152906001019060200180831161120657829003601f168201915b50505050508152505083838151811061123e5761123e613837565b60200260200101819052508180611254906138cc565b9250505b80611262816138cc565b915050610fba565b5090935050505b50919050565b600a818154811061128757600080fd5b9060005260206000200160009150905080546112a290613803565b80601f01602080910402602001604051908101604052809291908181526020018280546112ce90613803565b801561131b5780601f106112f05761010080835404028352916020019161131b565b820191906000526020600020905b8154815290600101906020018083116112fe57829003601f168201915b505050505081565b6007602052600090815260409020805460018201805491929161134590613803565b80601f016020809104026020016040519081016040528092919081815260200182805461137190613803565b80156113be5780601f10611393576101008083540402835291602001916113be565b820191906000526020600020905b8154815290600101906020018083116113a157829003601f168201915b505050506002830154600384015460048501805494956001600160a01b03841695600160a01b90940460ff16945091926113f790613803565b80601f016020809104026020016040519081016040528092919081815260200182805461142390613803565b80156114705780601f1061144557610100808354040283529160200191611470565b820191906000526020600020905b81548152906001019060200180831161145357829003601f168201915b50505050509080600501805461148590613803565b80601f01602080910402602001604051908101604052809291908181526020018280546114b190613803565b80156114fe5780601f106114d3576101008083540402835291602001916114fe565b820191906000526020600020905b8154815290600101906020018083116114e157829003601f168201915b5050505050905087565b6001600160a01b038181166000908152600660209081526040808320815160a08101909252805494851682529293606093849386938493909291830190600160a01b900460ff1660028111156115605761156061321d565b60028111156115715761157161321d565b815260200160018201805461158590613803565b80601f01602080910402602001604051908101604052809291908181526020018280546115b190613803565b80156115fe5780601f106115d3576101008083540402835291602001916115fe565b820191906000526020600020905b8154815290600101906020018083116115e157829003601f168201915b5050505050815260200160028201805461161790613803565b80601f016020809104026020016040519081016040528092919081815260200182805461164390613803565b80156116905780601f1061166557610100808354040283529160200191611690565b820191906000526020600020905b81548152906001019060200180831161167357829003601f168201915b50505091835250506003919091015460ff161515602091820152810151604082015160608301516080909301519199909850919650945092505050565b3360009081526006602052604090206003015460ff166116ff5760405162461bcd60e51b81526004016104f9906138f3565b611707612c77565b60088460405161171791906137ba565b9081526040519081900360200190205460ff161561176d5760405162461bcd60e51b815260206004820152601360248201527246696c6520616c72656164792065786973747360681b60448201526064016104f9565b60008351116117be5760405162461bcd60e51b815260206004820152601960248201527f4950465320686173682063616e6e6f7420626520656d7074790000000000000060448201526064016104f9565b600082511161180f5760405162461bcd60e51b815260206004820152601960248201527f46696c65206e616d652063616e6e6f7420626520656d7074790000000000000060448201526064016104f9565b6000811161185f5760405162461bcd60e51b815260206004820181905260248201527f46696c652073697a65206d7573742062652067726561746572207468616e203060448201526064016104f9565b6040805160c08101825284815260208101849052808201839052336060820152426080820152600160a0820152905160039061189c9087906137ba565b908152604051908190036020019020815181906118b9908261396e565b50602082015160018201906118ce908261396e565b50604082810151600283015560608301516003830180546001600160a01b0319166001600160a01b039092169190911790556080830151600483015560a0909201516005909101805460ff1916911515919091179055516001906008906119369087906137ba565b908152604051908190036020019020805491151560ff19909216919091179055600a80546001810182556000919091527fc65a7bb8d6351c1cf70c95a316cc6a92839c986682d98bc35f958f4883f9d2a801611992858261396e565b506119bf843360006040518060200160405280600081525060405180602001604052806000815250612cd0565b60405133906119cf9086906137ba565b60405180910390207f6e5e9524217be617b6260e9ffea9bd6ef8ac0a1abbf1d4fbfac7852d2076e3e0858585604051611a0a93929190613a2d565b60405180910390a3611a1b60018055565b50505050565b611a29612e4f565b611a336000612ea9565b565b60098181548110611a4557600080fd5b6000918252602090912001546001600160a01b0316905081565b82600881604051611a7091906137ba565b9081526040519081900360200190205460ff16611a9f5760405162461bcd60e51b81526004016104f9906137d6565b3360009081526006602052604090206003015460ff16611ad15760405162461bcd60e51b81526004016104f9906138f3565b611ad9612c77565b336001600160a01b0316600385604051611af391906137ba565b908152604051908190036020019020600301546001600160a01b03161480611b455750600233600090815260066020526040902054600160a01b900460ff166002811115611b4357611b4361321d565b145b611bb05760405162461bcd60e51b815260206004820152603660248201527f4f6e6c792066696c65206f776e6572206f722061646d696e6973747261746f726044820152752063616e206772616e74207065726d697373696f6e7360501b60648201526084016104f9565b6001600160a01b03831660009081526006602052604090206003015460ff16611c1b5760405162461bcd60e51b815260206004820152601a60248201527f5461726765742075736572206e6f74207265676973746572656400000000000060448201526064016104f9565b600384604051611c2b91906137ba565b908152604051908190036020019020600301546001600160a01b0390811690841603611ca75760405162461bcd60e51b815260206004820152602560248201527f43616e6e6f74206772616e74207065726d697373696f6e20746f2066696c652060448201526437bbb732b960d91b60648201526084016104f9565b600484604051611cb791906137ba565b90815260408051602092819003830190206001600160a01b0386166000908152925290206003015460ff16611d3157600584604051611cf691906137ba565b90815260405160209181900382019020805460018101825560009182529190200180546001600160a01b0319166001600160a01b0385161790555b6040518060a00160405280846001600160a01b03168152602001836002811115611d5d57611d5d61321d565b8152602001336001600160a01b0316815260200142815260200160011515815250600485604051611d8e91906137ba565b908152604080519182900360209081019092206001600160a01b0380881660009081529184529190208351815492166001600160a01b0319831681178255928401519092909183916001600160a81b031990911617600160a01b836002811115611dfa57611dfa61321d565b02179055506040828101516001830180546001600160a01b0319166001600160a01b03909216919091179055606083015160028301556080909201516003918201805460ff191691151591909117905581516020808201845260008083528451918201909452928352611e7292879233929091612cd0565b336001600160a01b0316836001600160a01b031685604051611e9491906137ba565b60405180910390207f9c429e4ef829a101ec00b4bcc03c393fb1fc17b907ef33028d4cf0461aad717085604051611ecb9190613a63565b60405180910390a4611a1b60018055565b600660205260009081526040902080546001820180546001600160a01b03831693600160a01b90930460ff16929190611f1490613803565b80601f0160208091040260200160405190810160405280929190818152602001828054611f4090613803565b8015611f8d5780601f10611f6257610100808354040283529160200191611f8d565b820191906000526020600020905b815481529060010190602001808311611f7057829003601f168201915b505050505090806002018054611fa290613803565b80601f0160208091040260200160405190810160405280929190818152602001828054611fce90613803565b801561201b5780601f10611ff05761010080835404028352916020019161201b565b820191906000526020600020905b815481529060010190602001808311611ffe57829003601f168201915b5050506003909301549192505060ff1685565b8060088160405161203f91906137ba565b9081526040519081900360200190205460ff1661206e5760405162461bcd60e51b81526004016104f9906137d6565b3360009081526006602052604090206003015460ff166120a05760405162461bcd60e51b81526004016104f9906138f3565b6120a8612c77565b336001600160a01b03166003836040516120c291906137ba565b908152604051908190036020019020600301546001600160a01b031614806121145750600233600090815260066020526040902054600160a01b900460ff1660028111156121125761211261321d565b145b6121795760405162461bcd60e51b815260206004820152603060248201527f4f6e6c792066696c65206f776e6572206f722061646d696e6973747261746f7260448201526f2063616e2064656c6574652066696c6560801b60648201526084016104f9565b6121a5823360056040518060200160405280600081525060405180602001604052806000815250612cd0565b6003826040516121b591906137ba565b90815260405190819003602001902060006121d08282612f50565b6121de600183016000612f50565b506000600282018190556003820180546001600160a01b0319169055600482018190556005909101805460ff1916905560405160089061221f9085906137ba565b908152604051908190036020018120805492151560ff19909316929092179091556000906005906122519085906137ba565b90815260408051918290036020908101832080548083028501830190935282845291908301828280156122ad57602002820191906000526020600020905b81546001600160a01b0316815260019091019060200180831161228f575b5050505050905060005b815181101561235c576004846040516122d091906137ba565b908152602001604051809103902060008383815181106122f2576122f2613837565b6020908102919091018101516001600160a01b03168252810191909152604001600090812080546001600160a81b03191681556001810180546001600160a01b03191690556002810191909155600301805460ff1916905580612354816138cc565b9150506122b7565b5060058360405161236d91906137ba565b908152602001604051809103902060006123879190612f8a565b60405133906123979085906137ba565b604051908190038120907fb7f404dbaa1b2ab0528fd20ea00c12bcd6d8d8e57a5e63af5710d9031e62ef1f90600090a3506123d160018055565b5050565b8151602081840181018051600582529282019185019190912091905280548290811061240057600080fd5b6000918252602090912001546001600160a01b03169150829050565b612424612e4f565b6001600160a01b03821660009081526006602052604090206003015460ff1661245f5760405162461bcd60e51b81526004016104f9906138f3565b6001600160a01b0382166000908152600660205260409020805482919060ff60a01b1916600160a01b83600281111561249a5761249a61321d565b02179055505050565b6000826001600160a01b03166003856040516124bf91906137ba565b908152604051908190036020019020600301546001600160a01b0316036124e8575060016125d5565b60006004856040516124fa91906137ba565b90815260408051602092819003830181206001600160a01b0388811660009081529185529083902060a08301909352825490811682529092830190600160a01b900460ff1660028111156125505761255061321d565b60028111156125615761256161321d565b815260018201546001600160a01b031660208201526002820154604082015260039091015460ff161515606090910152608081015190915080156125d157508260028111156125b2576125b261321d565b60ff16816020015160028111156125cb576125cb61321d565b60ff1610155b9150505b9392505050565b6060600233600090815260066020526040902054600160a01b900460ff16600281111561260b5761260b61321d565b148061262157506000546001600160a01b031633145b61267c5760405162461bcd60e51b815260206004820152602660248201527f4f6e6c792061646d696e6973747261746f72732063616e207669657720616c6c60448201526520757365727360d01b60648201526084016104f9565b60098054806020026020016040519081016040528092919081815260200182805480156126d257602002820191906000526020600020905b81546001600160a01b031681526001909101906020018083116126b4575b5050505050905090565b805160208183018101805160038252928201919093012091528054819061270290613803565b80601f016020809104026020016040519081016040528092919081815260200182805461272e90613803565b801561277b5780601f106127505761010080835404028352916020019161277b565b820191906000526020600020905b81548152906001019060200180831161275e57829003601f168201915b50505050509080600101805461279090613803565b80601f01602080910402602001604051908101604052809291908181526020018280546127bc90613803565b80156128095780601f106127de57610100808354040283529160200191612809565b820191906000526020600020905b8154815290600101906020018083116127ec57829003601f168201915b50505050600283015460038401546004850154600590950154939491936001600160a01b03909116925060ff1686565b612841612e4f565b6001600160a01b03841660009081526006602052604090206003015460ff16156128ad5760405162461bcd60e51b815260206004820152601760248201527f5573657220616c7265616479207265676973746572656400000000000000000060448201526064016104f9565b6040518060a00160405280856001600160a01b031681526020018460028111156128d9576128d961321d565b81526020808201859052604080830185905260016060909301929092526001600160a01b03808816600090815260068352929092208351815493166001600160a01b0319841681178255918401519092909183916001600160a81b03191617600160a01b83600281111561294f5761294f61321d565b021790555060408201516001820190612968908261396e565b506060820151600282019061297d908261396e565b50608091909101516003909101805460ff1916911515919091179055600980546001810182556000919091527f6e1540171b6c0c960b71a7020d9f60077f6af931a8bbf590da0223dacf75c7af0180546001600160a01b0319166001600160a01b0386169081179091556040517f5cc0af2bfa3dfe4071717fb192f5249fbde7a70a7a535b1fb01ccc1855422b6690612a1b90869086908690613a76565b60405180910390a250505050565b612a31612e4f565b6001600160a01b038116612a965760405162461bcd60e51b815260206004820152602660248201527f4f776e61626c653a206e6577206f776e657220697320746865207a65726f206160448201526564647265737360d01b60648201526084016104f9565b612a9f81612ea9565b50565b83600881604051612ab391906137ba565b9081526040519081900360200190205460ff16612ae25760405162461bcd60e51b81526004016104f9906137d6565b3360009081526006602052604090206003015460ff16612b145760405162461bcd60e51b81526004016104f9906138f3565b6001846005811115612b2857612b2861321d565b1480612b4557506002846005811115612b4357612b4361321d565b145b612b9d5760405162461bcd60e51b815260206004820152602360248201527f496e76616c696420616374696f6e20666f722065787465726e616c206c6f6767604482015262696e6760e81b60648201526084016104f9565b336001600160a01b0316600386604051612bb791906137ba565b908152604051908190036020019020600301546001600160a01b03161480612c0d5750600485604051612bea91906137ba565b9081526040805160209281900383019020336000908152925290206003015460ff165b612c635760405162461bcd60e51b815260206004820152602160248201527f4e6f207065726d697373696f6e20746f2061636365737320746869732066696c6044820152606560f81b60648201526084016104f9565b612c708533868686612cd0565b5050505050565b600260015403612cc95760405162461bcd60e51b815260206004820152601f60248201527f5265656e7472616e637947756172643a207265656e7472616e742063616c6c0060448201526064016104f9565b6002600155565b612cde600280546001019055565b6000612ce960025490565b90506040518060e00160405280828152602001878152602001866001600160a01b03168152602001856005811115612d2357612d2361321d565b815242602080830191909152604080830187905260609092018590526000848152600782529190912082518155908201516001820190612d63908261396e565b5060408201516002820180546001600160a01b039092166001600160a01b03198316811782556060850151926001600160a81b03191617600160a01b836005811115612db157612db161321d565b02179055506080820151600382015560a08201516004820190612dd4908261396e565b5060c08201516005820190612de9908261396e565b50905050846001600160a01b031686604051612e0591906137ba565b6040518091039020827f8d11c5fa6d5ab1d418d044cd5881f6f94b5aa2eaf8020c9b3199bfd7aedc2fe18742604051612e3f929190613ab4565b60405180910390a4505050505050565b6000546001600160a01b03163314611a335760405162461bcd60e51b815260206004820181905260248201527f4f776e61626c653a2063616c6c6572206973206e6f7420746865206f776e657260448201526064016104f9565b600080546001600160a01b038381166001600160a01b0319831681178455604051919092169283917f8be0079c531659141344cd1fd0a4f28419497f9722a3daafe3b4186f6b6457e09190a35050565b6040518060e00160405280600081526020016060815260200160006001600160a01b0316815260200160006005811115612f3557612f3561321d565b81526020016000815260200160608152602001606081525090565b508054612f5c90613803565b6000825580601f10612f6c575050565b601f016020900490600052602060002090810190612a9f9190612fa4565b5080546000825590600052602060002090810190612a9f91905b5b80821115612fb95760008155600101612fa5565b5090565b634e487b7160e01b600052604160045260246000fd5b600082601f830112612fe457600080fd5b81356001600160401b0380821115612ffe57612ffe612fbd565b604051601f8301601f19908116603f0116810190828211818310171561302657613026612fbd565b8160405283815286602085880101111561303f57600080fd5b836020870160208301376000602085830101528094505050505092915050565b60006020828403121561307157600080fd5b81356001600160401b0381111561308757600080fd5b61309384828501612fd3565b949350505050565b60005b838110156130b657818101518382015260200161309e565b50506000910152565b600081518084526130d781602086016020860161309b565b601f01601f19169290920160200192915050565b60a0815260006130fe60a08301886130bf565b828103602084015261311081886130bf565b604084019690965250506001600160a01b0392909216606083015260809091015292915050565b80356001600160a01b038116811461314e57600080fd5b919050565b60006020828403121561316557600080fd5b6125d582613137565b6000602080830181845280855180835260408601915060408160051b870101925083870160005b828110156131c357603f198886030184526131b18583516130bf565b94509285019290850190600101613195565b5092979650505050505050565b600080604083850312156131e357600080fd5b82356001600160401b038111156131f957600080fd5b61320585828601612fd3565b92505061321460208401613137565b90509250929050565b634e487b7160e01b600052602160045260246000fd5b600681106132435761324361321d565b9052565b60006020808301818452808551808352604092508286019150828160051b87010184880160005b8381101561331957603f19898403018552815160e08151855288820151818a87015261329c828701826130bf565b838a01516001600160a01b0316878b015260608085015191935091506132c482880182613233565b50506080828101519086015260a080830151868303828801526132e783826130bf565b9250505060c0808301519250858203818701525061330581836130bf565b96890196945050509086019060010161326e565b509098975050505050505050565b60006020828403121561333957600080fd5b5035919050565b6020815260006125d560208301846130bf565b87815260e06020820152600061336c60e08301896130bf565b6001600160a01b03881660408401526133886060840188613233565b85608084015282810360a08401526133a081866130bf565b905082810360c08401526133b481856130bf565b9a9950505050505050505050565b60038110612a9f57612a9f61321d565b6133db856133c2565b8481526080602082015260006133f460808301866130bf565b828103604084015261340681866130bf565b915050821515606083015295945050505050565b6000806000806080858703121561343057600080fd5b84356001600160401b038082111561344757600080fd5b61345388838901612fd3565b9550602087013591508082111561346957600080fd5b61347588838901612fd3565b9450604087013591508082111561348b57600080fd5b5061349887828801612fd3565b949793965093946060013593505050565b60038110612a9f57600080fd5b6000806000606084860312156134cb57600080fd5b83356001600160401b038111156134e157600080fd5b6134ed86828701612fd3565b9350506134fc60208501613137565b9150604084013561350c816134a9565b809150509250925092565b6001600160a01b038616815261352c856133c2565b84602082015260a06040820152600061354860a08301866130bf565b828103606084015261355a81866130bf565b91505082151560808301529695505050505050565b6000806040838503121561358257600080fd5b82356001600160401b0381111561359857600080fd5b6135a485828601612fd3565b95602094909401359450505050565b600080604083850312156135c657600080fd5b6135cf83613137565b915060208301356135df816134a9565b809150509250929050565b6001600160a01b03868116825260a0820190613605876133c2565b86602084015280861660408401525083606083015282151560808301529695505050505050565b6020808252825182820181905260009190848201906040850190845b8181101561366d5783516001600160a01b031683529284019291840191600101613648565b50909695505050505050565b60c08152600061368c60c08301896130bf565b828103602084015261369e81896130bf565b604084019790975250506001600160a01b039390931660608401526080830191909152151560a09091015292915050565b600080600080608085870312156136e557600080fd5b6136ee85613137565b935060208501356136fe816134a9565b925060408501356001600160401b038082111561371a57600080fd5b61372688838901612fd3565b9350606087013591508082111561373c57600080fd5b5061374987828801612fd3565b91505092959194509250565b6000806000806080858703121561376b57600080fd5b84356001600160401b038082111561378257600080fd5b61378e88838901612fd3565b955060208701359150600682106137a457600080fd5b9093506040860135908082111561371a57600080fd5b600082516137cc81846020870161309b565b9190910192915050565b602080825260139082015272119a5b1948191bd95cc81b9bdd08195e1a5cdd606a1b604082015260600190565b600181811c9082168061381757607f821691505b60208210810361127157634e487b7160e01b600052602260045260246000fd5b634e487b7160e01b600052603260045260246000fd5b6000815461385a81613803565b600182811680156138725760018114613887576138b6565b60ff19841687528215158302870194506138b6565b8560005260208060002060005b858110156138ad5781548a820152908401908201613894565b50505082870194505b5050505092915050565b60006125d5828461384d565b6000600182016138ec57634e487b7160e01b600052601160045260246000fd5b5060010190565b602080825260139082015272155cd95c881b9bdd081c9959da5cdd195c9959606a1b604082015260600190565b601f821115610ea157600081815260208120601f850160051c810160208610156139475750805b601f850160051c820191505b8181101561396657828155600101613953565b505050505050565b81516001600160401b0381111561398757613987612fbd565b61399b816139958454613803565b84613920565b602080601f8311600181146139d057600084156139b85750858301515b600019600386901b1c1916600185901b178555613966565b600085815260208120601f198616915b828110156139ff578886015182559484019460019091019084016139e0565b5085821015613a1d5787850151600019600388901b60f8161c191681555b5050505050600190811b01905550565b606081526000613a4060608301866130bf565b8281036020840152613a5281866130bf565b915050826040830152949350505050565b60208101613a70836133c2565b91905290565b613a7f846133c2565b838152606060208201526000613a9860608301856130bf565b8281036040840152613aaa81856130bf565b9695505050505050565b60408101613ac28285613233565b826020830152939250505056fea2646970667358221220ca032308af7e53c7a67471d392040a2f3293266fadbd5352f56cce40fe6a3d9d64736f6c63430008130033",
  "linkReferences": {},
  "deployedLinkReferences": {}
}